{
  "_format": "hh-sol-artifact-1",
  "contractName": "PayGifty",
  "sourceName": "contracts/PayGifty.sol",
  "abi": [
    {
      "anonymous": false,
      "inputs": [
        {
          "indexed": true,
          "internalType": "uint256",
          "name": "cardId",
          "type": "uint256"
        },
        {
          "indexed": true,
          "internalType": "address",
          "name": "buyer",
          "type": "address"
        },
        {
          "indexed": false,
          "internalType": "uint256",
          "name": "amount",
          "type": "uint256"
        }
      ],
      "name": "GiftCardBought",
      "type": "event"
    },
    {
      "anonymous": false,
      "inputs": [
        {
          "indexed": true,
          "internalType": "uint256",
          "name": "cardId",
          "type": "uint256"
        },
        {
          "indexed": true,
          "internalType": "address",
          "name": "redeemer",
          "type": "address"
        }
      ],
      "name": "GiftCardRedeemed",
      "type": "event"
    },
    {
      "inputs": [],
      "name": "buyGiftCard",
      "outputs": [],
      "stateMutability": "payable",
      "type": "function"
    },
    {
      "inputs": [],
      "name": "cardCounter",
      "outputs": [
        {
          "internalType": "uint256",
          "name": "",
          "type": "uint256"
        }
      ],
      "stateMutability": "view",
      "type": "function"
    },
    {
      "inputs": [
        {
          "internalType": "uint256",
          "name": "",
          "type": "uint256"
        }
      ],
      "name": "giftCards",
      "outputs": [
        {
          "internalType": "address",
          "name": "owner",
          "type": "address"
        },
        {
          "internalType": "uint256",
          "name": "amount",
          "type": "uint256"
        },
        {
          "internalType": "bool",
          "name": "isRedeemed",
          "type": "bool"
        }
      ],
      "stateMutability": "view",
      "type": "function"
    },
    {
      "inputs": [
        {
          "internalType": "uint256",
          "name": "cardId",
          "type": "uint256"
        }
      ],
      "name": "redeemGiftCard",
      "outputs": [],
      "stateMutability": "nonpayable",
      "type": "function"
    }
  ],
  "bytecode": "0x608060405234801561001057600080fd5b506107d5806100206000396000f3fe60806040526004361061003f5760003560e01c80637400cba2146100445780639898135f1461006d578063a34f011c146100ac578063f51dcc7a146100b6575b600080fd5b34801561005057600080fd5b5061006b6004803603810190610066919061049d565b6100e1565b005b34801561007957600080fd5b50610094600480360381019061008f919061049d565b61029c565b6040516100a393929190610535565b60405180910390f35b6100b46102f3565b005b3480156100c257600080fd5b506100cb61045c565b6040516100d8919061056c565b60405180910390f35b60006001600083815260200190815260200160002090503373ffffffffffffffffffffffffffffffffffffffff168160000160009054906101000a900473ffffffffffffffffffffffffffffffffffffffff1673ffffffffffffffffffffffffffffffffffffffff161461018a576040517f08c379a00000000000000000000000000000000000000000000000000000000081526004016101819061060a565b60405180910390fd5b8060020160009054906101000a900460ff16156101dc576040517f08c379a00000000000000000000000000000000000000000000000000000000081526004016101d390610676565b60405180910390fd5b60008160010154905060018260020160006101000a81548160ff021916908315150217905550600082600101819055503373ffffffffffffffffffffffffffffffffffffffff166108fc829081150290604051600060405180830381858888f19350505050158015610252573d6000803e3d6000fd5b503373ffffffffffffffffffffffffffffffffffffffff16837fc265802b75a07cf2c4816da08cbb4edc8e168672d18248ba76487d03c5ae783460405160405180910390a3505050565b60016020528060005260406000206000915090508060000160009054906101000a900473ffffffffffffffffffffffffffffffffffffffff16908060010154908060020160009054906101000a900460ff16905083565b60003411610336576040517f08c379a000000000000000000000000000000000000000000000000000000000815260040161032d90610708565b60405180910390fd5b60405180606001604052803373ffffffffffffffffffffffffffffffffffffffff16815260200134815260200160001515815250600160008054815260200190815260200160002060008201518160000160006101000a81548173ffffffffffffffffffffffffffffffffffffffff021916908373ffffffffffffffffffffffffffffffffffffffff1602179055506020820151816001015560408201518160020160006101000a81548160ff0219169083151502179055509050503373ffffffffffffffffffffffffffffffffffffffff166000547f8f46b42129a7accf83a1af347f3a1e449604ec522d0e7c6a337024df456b068f3460405161043b919061056c565b60405180910390a360008081548092919061045590610757565b9190505550565b60005481565b600080fd5b6000819050919050565b61047a81610467565b811461048557600080fd5b50565b60008135905061049781610471565b92915050565b6000602082840312156104b3576104b2610462565b5b60006104c184828501610488565b91505092915050565b600073ffffffffffffffffffffffffffffffffffffffff82169050919050565b60006104f5826104ca565b9050919050565b610505816104ea565b82525050565b61051481610467565b82525050565b60008115159050919050565b61052f8161051a565b82525050565b600060608201905061054a60008301866104fc565b610557602083018561050b565b6105646040830184610526565b949350505050565b6000602082019050610581600083018461050b565b92915050565b600082825260208201905092915050565b7f4f6e6c7920746865206f776e65722063616e2072656465656d2074686520676960008201527f6674206361726400000000000000000000000000000000000000000000000000602082015250565b60006105f4602783610587565b91506105ff82610598565b604082019050919050565b60006020820190508181036000830152610623816105e7565b9050919050565b7f47696674206361726420697320616c72656164792072656465656d6564000000600082015250565b6000610660601d83610587565b915061066b8261062a565b602082019050919050565b6000602082019050818103600083015261068f81610653565b9050919050565b7f416d6f756e742073686f756c642062652067726561746572207468616e207a6560008201527f726f000000000000000000000000000000000000000000000000000000000000602082015250565b60006106f2602283610587565b91506106fd82610696565b604082019050919050565b60006020820190508181036000830152610721816106e5565b9050919050565b7f4e487b7100000000000000000000000000000000000000000000000000000000600052601160045260246000fd5b600061076282610467565b91507fffffffffffffffffffffffffffffffffffffffffffffffffffffffffffffffff820361079457610793610728565b5b60018201905091905056fea2646970667358221220b6463aea85bf07f93aba496d17eb3a19770313539595f81ff61ca8411d329ac064736f6c63430008140033",
  "linkReferences": {},
  "deployedLinkReferences": {}
}